:100000000C94AB030C94F2030C94F2030C94F203E3
:100010000C94F2030C94F2030C94F2030C94F2038C
:100020000C94F2030C94F2030C9454280C9426299B
:100030000C94D2200C94F2030C94F2030C94F2036F
:100040000C94F2030C94F2030C94F2030C94F2035C
:100050000C94F2030C941F210C94F2030C94F20301
:100060000C94F2030C94F2030C94F2030C94F2033C
:100070000C94F2030C94F2030C94F2030C94F2032C
:100080000C94F2030C94F2030C94F2030C94F2031C
:100090000C94F2030C94F2030C94F2030C94F2030C
:1000A0000C94F2030C94F2030C94F203EE10F11092
:1000B000F910FE10031108110D11121117111C1166
:1000C0002111261128112B112E1131113411371144
:1000D00039113E1181168116B316B3160017201779
:1000E000491849182B17C817D917D917391849189B
:1000F00049184218E518E518F718F718EE18F71818
:10010000F718F718E518E518F318F718F718F318A3
:100110009329BA29AC2ABA29AC2A062A292AAC2A58
:100120007F2A8E2A0103E10103E2000102E10102BC
:10013000E2002B0014001A000800150017001C0034
:1001400018000C00120013002A00E0000400160042
:10015000070009000A000B000D000E000F0033001D
:100160003464E1001D001B000600190005001100A9
:100170001000360037005200E5002944E300025128
:1001800028000000000000002C0001515000510028
:100190004F0035001E021F0220022102220223020C
:1001A00024022502260227024C0001000100010062
:1001B00001000100010001002E022D002F0230027B
:1001C0002E000100010001000100010001000100FA
:1001D0000100010038003100350201000100035127
:1001E000010000000000000001000100010001000A
:1001F000005C285D1E001F0020002100220023005B
:100200002400250026002700310201000100010022
:100210000100010001000100010001002F00300079
:100220002E00010001000100010001000100010099
:100230000100010038022D02350201000100010019
:100240000100000000000000010003510100010056
:1002500001003A003B003C003D003E003F004000F2
:10026000410042004300440045000100010001003C
:1002700001000100010049004A004B00480046000F
:100280004700010001000100010001000100010020
:100290004D004E003900010001003900010001004D
:1002A0002C0000000000000001000100010001001E
:1002B00001000100010001004D00010001000100EA
:1002C0000100010001005200010001004A0001008C
:1002D0004C004F0029002A0001000100FD00FE0033
:1002E000FF00010001000100010001005000510069
:1002F0002800F900F400F000F50001000100010001
:1003000001000000000000000100FA00F200F1000E
:10031000F30000000000000000002A2B280000006D
:1003200000000000000000000000000000290000A4
:1003300000002C1E3420212224342627252E362D81
:100340003738271E1F202122232425263333362E1B
:1003500037381F0405060708090A0B0C0D0E0F108D
:100360001112131415161718191A1B1C1D2F3130D2
:10037000232D350405060708090A0B0C0D0E0F1076
:100380001112131415161718191A1B1C1D2F3130B2
:10039000354C0000000000000000000000000000DC
:1003A0000000000000007E0F00D4FFFFFFC7000028
:1003B000007832190A00047F3F1F6432146432143B
:1003C000783C1E1E140A052223252628292A2C2DB6
:1003D0002F3032333536383A3B3D3E404243454775
:1003E000494A4C4E5051535557595A5C5E606264AD
:1003F0006668696B6D6F71737577797B7D7F8183BB
:100400008587898A8C8E90929496989A9C9E9FA1BB
:10041000A3A5A7A8AAACAEAFB1B3B4B6B8B9BBBCDC
:10042000BEBFC1C2C3C5C6C7C9CACBCCCDCED0D151
:10043000D2D2D3D4D5D6D7D7D8D9D9DADADBDBDB49
:10044000DCDCDCDCDCDDDDDDDDDCDCDCDCDCDBDBEA
:10045000DBDADAD9D9D8D7D7D6D5D4D3D2D2D1D03E
:10046000CECDCCCBCAC9C7C6C5C3C2C1BFBEBCBB3B
:10047000B9B8B6B4B3B1AFAEACAAA8A7A5A3A19FB3
:100480009E9C9A98969492908E8C8A898785838177
:100490007F7D7B79777573716F6D6B696866646258
:1004A000605E5C5A5957555351504E4C4A49474526
:1004B0004342403E3D3B3A3836353332302F2D2CC7
:1004C0002A292826252322FFAA7F55400001010161
:1004D0000101010101010202020202020202020301
:1004E00003030303030303040404040404040505D1
:1004F0000505050606060606070707070708080894
:1005000008090909090A0A0A0B0B0B0C0C0C0D0D42
:100510000D0E0E0E0F0F0F101011111112121313DA
:100520001414151516161717181819191A1A1B1B53
:100530001C1D1D1E1E1F20202122222324242526AF
:1005400026272829292A2B2C2D2D2E2F30313232E7
:10055000333435363738393A3B3C3D3E3F404142F3
:10056000434445464748494A4C4D4E4F50515354D9
:10057000555658595A5B5D5E5F616264656668698D
:100580006B6C6D6F7072737577787A7B7D7E80820D
:10059000838587888A8C8E8F91939596989A9C9E56
:1005A000A0A2A3A5A7A9ABADAFB1B3B5B7BABCBE66
:1005B000C0C2C4C6C9CBCDCFD1D4D6D8DBDDDFE233
:1005C000E4E7E9EBEEF0F3F5F8FAFDFF04033000A1
:1005D000000010034D0069006E00690056006100C4
:1005E0006E000000220354006800650056006100A0
:1005F0006E0020004B006500790062006F00610012
:1006000072006400730000000403090409023B0047
:10061000020100A0320904000001030101000921C8
:10062000110100012240000705810308000A0904A6
:100630000100010300000009211101000122BC009A
:100640000705820320000A1201100100000008AE15
:10065000FE478801000102030105010902A101858D
:10066000020901A1000509190129051500250195B7
:1006700005750181029501750381010501093009A4
:10068000311581257F950275088106093815812568
:100690007F950175088106050C0A38021581257FB2
:1006A000950175088106C0C005010980A101850377
:1006B00019012AB700150126B700950175108100B0
:1006C000C0050C0901A101850419012AA002150128
:1006D00026A002950175108100C005010906A1013F
:1006E0008505050719E029E715002501950875011D
:1006F00081020507190029EF1500250195F0750104
:1007000081020508190129059505750191029501D8
:1007100075039101C005010906A101050719E0292A
:10072000E71500250195087501810295017508817D
:10073000010507190029FF150026FF009506750819
:10074000810005081901290595057501910295019A
:1007500075039101C00011241FBECFEFDAE0DEBFA8
:10076000CDBF04B603FE27C08091E3029091E4025E
:10077000A091E502B091E6028730904BA740B04BC4
:10078000D1F41092E3021092E4021092E50210926A
:10079000E60214BE84B7877F84BF0FB6F894A8958D
:1007A00080916000886180936000109260000FBEAD
:1007B000E0E0F8E3099511E0A0E0B1E0EAE9F8E54E
:1007C00002C005900D92AA3CB107D9F722E0AAEC2D
:1007D000B1E001C01D92A33EB207E1F70E94B3252C
:1007E0000C944B2C0C940000A8E3B1E041E050E0E5
:1007F00024E02A0F8D91E82FE295EF70F0E031A10F
:100800008F70BA0102C0660F771F8A95E2F7CB019D
:10081000962F9095932391A392A1892B82A32A13BB
:10082000E9CFACE2B1E041E050E02CE02A0F8D913D
:10083000E82FE295EF70F0E031A18F70BA0102C0AD
:10084000660F771F8A95E2F7CB01962F9095932339
:1008500091A392A1892B82A32A13E9CF08956F92C5
:100860007F928F929F92AF92BF92CF92DF92EF9240
:10087000FF920F931F93CF93DF931F92CDB7DEB7F5
:100880006C0138E3E32E31E0F32E80E0AA24A39438
:10089000B12C54E0852E8E0CF70191917F01692EC9
:1008A00062942FE06222712CF30121A19F708501D7
:1008B00001C0000F9A95EAF7922F902B91A392A175
:1008C000902E9094992192A389830E944009ECE292
:1008D000F1E060E070E040E050E089819191A92F63
:1008E000A295AF70B0E090962C9130E09F7002C05E
:1008F000359527959A95E2F720FD08C09501062EBB
:1009000002C0220F331F0A94E2F702C020E030E059
:10091000422B532B6F5F7F4F6C307105F9F6F3015B
:1009200091A1992291A292A1092B02A3F6012191F2
:1009300031916F012417350729F032975183408395
:1009400091E001C090E0892B8E10A6CF0F90DF912F
:10095000CF911F910F91FF90EF90DF90CF90BF90BC
:10096000AF909F908F907F906F9008950C94340972
:100970000C9435090C94BE040C949A05CF93FB019A
:10098000C281CC2349F088329D4579F48BE291E015
:100990000E94BF06C0E009C088329D4529F484E268
:1009A00091E00E94BF0601C0C1E08C2FCF91089555
:1009B0004F925F926F927F928F929F92AF92BF926F
:1009C000CF92DF92EF92FF921F93CF93DF9300D0ED
:1009D00000D0CDB7DEB76B017C01142F87ECA82EB9
:1009E00082E0B82E950140E060E080E00E945A0A63
:1009F00083E0A80EB11C90EDA91692E0B90691F71C
:100A000027EC32E048EC68EC80E00E945A0AC1FE14
:100A100007C027EC32E040E068EC80E00E945A0A10
:100A2000D701C60184709927AA27BB2789839A8397
:100A3000AB83BC83C2FE07C027EC32E040E068EC29
:100A400080E00E945A0A2601370198E04922552485
:100A500066247724C3FE07C027EC32E040E068EC50
:100A600080E00E945A0A46015701A0E18A22992497
:100A7000AA24BB24C4FE07C027EC32E048EC68EC93
:100A800088EC0E945A0A89819A81AB81BC81892BAA
:100A90008A2B8B2B39F02AEC32E040E068EC88ECB2
:100AA0000E945A0A45284628472871F02AEC32E06D
:100AB00040E068EC88EC0E945A0A2DEC32E040E0FD
:100AC00060E088EC0E945A0A89288A288B2839F02D
:100AD0002DEC32E048EC68EC88EC0E945A0A14FFD6
:100AE00007C02DEC32E04EEB6DE78DEB0E945A0A09
:100AF0000F900F900F900F90DF91CF911F91FF906B
:100B0000EF90DF90CF90BF90AF909F908F907F90AD
:100B10006F905F904F900C94DA0A0E94B113482FA7
:100B2000609152027091530280915402909155024B
:100B30000C94D8040E94B113482F60915202709116
:100B4000530280915402909155020C94D804CF9294
:100B5000DF92EF92FF926B017C010E94B113482F4C
:100B6000C701B6010E94D804C701B601FF90EF90FB
:100B7000DF90CF90089581E0089508950C94BD050D
:100B80001F93CF93DF9300D000D01F92CDB7DEB775
:100B900049835A833091FB0189819A81311114C0B4
:100BA000662359F0222349F00E94271E182F682F30
:100BB00089819A810E94CC1D03C00E94FB1D182FC1
:100BC00069817A81812F04C00E94271E69817A8100
:100BD0000F900F900F900F900F90DF91CF911F917A
:100BE0000C943007FC01262F408151816281738172
:100BF00084810C94C005CF93DF93EC0160E00E94E8
:100C0000F205BE01DF91CF910C94BE05FF920F93C8
:100C10001F93CF93DF93E82FF0E0EE5EFC4FF4904C
:100C2000C82FC695C695C695D0E0FE01EE55FC4F7F
:100C30000491877010E0082E02C0159507950A945C
:100C4000E2F701701127FE01EE56FC4FC491D0E08F
:100C500002C0D595C7958A95E2F7C170DD270115C9
:100C6000110519F081EE0E941815209719F086EEF3
:100C70000E9418158F2D0E942A16CD2B19F086EE92
:100C80000E94C215012B41F081EEDF91CF911F919F
:100C90000F91FF900C94C215DF91CF911F910F918E
:100CA000FF900895EF92FF920F931F93CF93DF93DE
:100CB0008C01F62E8AE0E82EF8018491882309F44D
:100CC00057C0813009F042C0E8012196FE018491AD
:100CD000813031F42196FE0184910E942A1639C098
:100CE000823039F4E8012296FE0184910E941815A1
:100CF00030C0833039F4E8012296FE0184910E94CD
:100D0000C21527C0843029F5E8012296FE012491FE
:100D100080E090E030E0205331092A30310560F462
:100D2000E89EA001E99E500D1124CA01820F931F75
:100D30002196FE012491EECF009759F0EFE9FFE0F4
:100D40003197F1F700C000000197F6CF0E94060628
:100D5000E8018E010F5F1F4F8F2D882309F4ACCF60
:100D6000EFE9FFE03197F1F700C000008150F5CFC7
:100D7000DF91CF911F910F91FF90EF90089560E068
:100D80000C9452060E94571F811102C00E94F71F47
:100D90000C94B6040C94B80481E008950C94CC062D
:100DA000CF93C82F0E94BC048C2F0E94CE06CF91F7
:100DB000089508950E94D5180E94D9062FEF84E364
:100DC0009CE0215080409040E1F700C000000C946E
:100DD00045210F931F93CF93DF93EC0161E00E94B5
:100DE000F2058C01BE010E94BA04882379F1BE018C
:100DF000C8010E94FE11882349F1BE01C8010E946A
:100E00005012882319F1BE01C8010E947B13882368
:100E1000E9F0BE01C8010E94D7108823B9F08A8189
:100E2000882369F001158CE5180731F00E3D1C454B
:100E300031F40E94F71F0AC00E94DA0607C0CE01F3
:100E4000DF91CF911F910F910C94BB0580E0DF9152
:100E5000CF911F910F91089580E090E0089508953B
:100E60009CE0799FF001112490E3899FE00DF11D32
:100E70001124E60FF11DEE0FFF1FEE5CFE4F859172
:100E800094910895880F991FFC01EE54FC4F8591B1
:100E900094910895CF93DF930E9430070E945D08DC
:100EA000EC01811520E59207F0F5811530E49307F8
:100EB00008F0CDC0883E910500F5803E910508F010
:100EC000F8C0883A910570F4853A910508F09FC002
:100ED0008130910509F4EDC008F4E9C0049708F0E9
:100EE000E8C0E5C08F3B910508F499C0803C9105AE
:100EF00008F4DDC0805C91099DC0811540E2940733
:100F000058F4C11581E0D80708F0D3C0C03FD1051F
:100F100008F4CDC0D065CDC0811520E3920708F05C
:100F20008DC09F7087C0811535E5930708F044C0D8
:100F3000811544E5940708F0A1C0C11582E5D807E2
:100F400008F5C11521E5D20708F084C08C2F837005
:100F500021E030E002C0220F331F8A95E2F73C689F
:100F6000CE0174E0969587957A95E1F78370382BDA
:100F7000CF70C695C69580E2C89FE0011124C22BB0
:100F8000D32B97C02C2F26952695CE0183709927B9
:100F9000C115D34508F063C040E2249F900111249D
:100FA000C1E0D0E002C0CC0FDD1F8A95E2F72C2B08
:100FB0003D2BE901DC687DC0811549E59407A0F46B
:100FC000C11588E5D80708F05EC0C11526E5D2072F
:100FD00008F06DC08C2F0E94F1088F71C82FD0E0EF
:100FE000DC2FCC27D06265C081153AE5930708F461
:100FF0004FC090568115904208F059C08D2F8F71C7
:101000000E94F108DD27D0628F71D82B52C0C55ADB
:10101000D0E0C659DE4FC881D0E0D0644AC0C85A7B
:10102000D0E0CC0FDD1FC45CDE4F0990D881C02D0D
:10103000D4643FC00E944207EC013BC09927D3FF14
:1010400003C0EC01D86C35C0EC01D06C32C0DF704D
:10105000D06A2FC0DC2FCC27C16FD06A2AC040E2F3
:10106000249F90011124C1E0D0E002C0CC0FDD1F0D
:101070008A95E2F7C22BD32BDA681BC0D82FCC2776
:10108000C46FD06A16C0DC2FCC27C06FD06A11C0E5
:101090008F700E94F10894E0D695C7959A95E1F774
:1010A000CF70D0E0DC2FCC27D069C82B02C0C0E0C5
:1010B000D0E0CE01DF91CF9108958238910569F19A
:1010C000B0F48133910509F46DC048F4893291057B
:1010D00009F463C08A32910509F469C00895853323
:1010E000910509F455C089339105B9F00895833EFF
:1010F000910569F138F4803E9105B1F0823E910589
:1011000009F10895863E9105A9F1873E9105B9F14F
:10111000843E910509F064C023C02091D40220FDD3
:101120004FC021FD4DC008958091D40280FD44C080
:101130008091D50280FF44C08091D40284FD42C0DA
:1011400083EE4DC08091D40282FF38C0F5CF8091EC
:10115000D40282FD33C08091D50280FD31C0ECCF36
:101160008091D50281FF32C08091D40284FD2AC0D3
:1011700087EE35C08091D40283FF26C0F5CF8091E1
:10118000D40283FD21C08091D50281FD1FC0ECCF28
:101190008091D40285FD1CC01DC08091D40285FDC4
:1011A00019C016C08091D40286FD16C017C0809168
:1011B000D40286FD13C010C089E311C082EE0FC0B7
:1011C00080EE0DC080E00BC086EE09C084EE07C043
:1011D00089E205C085E303C08AE201C081E390E0B3
:1011E00008959091D40292FF0DC0282F28712830C5
:1011F00019F4877F846006C0282F2471243011F4ED
:101200008B7F886093FF0DC0282F2871283119F437
:10121000877E846106C0282F2471243111F48B7ECF
:1012200088612091D50220FF0DC0382F38713830E9
:1012300019F4877F816006C0382F3171313011F485
:101240008E7F886021FF0DC0282F2871283119F466
:10125000877E816106C0282F2171213111F48E7E95
:10126000886194FD877E089508950895E82FF0E041
:10127000EE0FFF1FE654FD4F808191810895089580
:1012800080EA8A95F1F708950E94F403A2EBB2E098
:1012900011961C921E92EAEBF2E0118210821396D4
:1012A0001C921E9212971382128215961C921E9205
:1012B00014971582148217961C921E921697178205
:1012C000168284E00E9479090C94C206CF9382EBC7
:1012D00092E00E942F04C82F282F44E06AEB72E0AE
:1012E00082EB92E00E947A090E94CA068C2FCF916D
:1012F00008950895FF920F931F93CF93DF93F82ED5
:10130000092F162FD72FC42F222349F081E0809375
:10131000CC010E9404219093CB018093CA0180915B
:10132000CC018823D9F08091CA019091CB010E9411
:101330001021069798F0EF2DF02FA12FBD2F80E000
:1013400090E04C2F50E08417950734F421913191AF
:101350002D933D930196F7CF1092CC01DF91CF9161
:101360001F910F91FF900895CF92DF92EF92FF921D
:101370000F931F93CF93DF938B01982F11110BC005
:10138000442329F0E82FF0E0E453FB4F9491692FB8
:10139000792F892F73C0212F30E0E82FF0E044230C
:1013A00021F0E453FB4FE491F0E046E0049FC001DC
:1013B0001124CFEFD0E0BE010E94FA2ADB014BEAF4
:1013C0004603C001479F900D1124800F911D800F8F
:1013D000911D982F990F890FAE01421B530BE49F6B
:1013E0007001E59FF00CF49FF00C11244F2D819FAC
:1013F000B0011124672F77278E01061B170BB80148
:10140000E69F8001E79F100DF69F100D1124712FAC
:101410006E01C81AD108C29EC001C39E900DD29E13
:10142000900D1124892F9927C81BD90BEC9F90018F
:10143000ED9F300DFC9F300D1124932FA230B1058C
:1014400069F02CF41097B9F0119751F012C0A43044
:10145000B10559F03CF0169761F40DC07F2D432F74
:101460009E2F0AC0912F7F2D02C0732F9F2D4E2FCC
:1014700003C09F2D412F7E2F692F842FDF91CF91A5
:101480001F910F91FF90EF90DF90CF90089541E072
:101490000E94B40908950895CF93DF93762FE90150
:1014A000682F842F0E94470A798368838A83DF919B
:1014B000CF910895F90181836083428308958091DB
:1014C000C202282F269530E02115310519F48170CC
:1014D000826005C02B32310524F0817084658093D1
:1014E000C202089588E090E00C94EC2BCF93DF9338
:1014F00000D000D0CDB7DEB7AB01BC0149835A8321
:101500006B837C830E945F0A49815A816B817C8155
:1015100088E090E00F900F900F900F90DF91CF91A7
:101520000C940A2CE2ECF2E083E0808311828FEFCE
:1015300082838383148260817181828193810C9480
:10154000760A8091C20280FF02C08695089580E0ED
:1015500008959091C602933018F49F5F9093C6024D
:10156000882351F06091C2027091C3028091C4023D
:101570009091C5020C94760A089581E00C94A90A12
:101580009091C602992319F091509093C602882336
:1015900051F06091C2027091C3028091C402909197
:1015A000C5020C94760A089581E00C94C00A70E09C
:1015B0000C944811609108018091C20280FF0AC01A
:1015C0008091070123E0829FC001112489539D4F20
:1015D0000C94D70A8091090190910A01891780F72C
:1015E000E82FF0E09F01220F331FE20FF31FE953B2
:1015F000FD4F1182108212828F5FF0CF9091C20254
:1016000090FF16C09091090120910A01921770F481
:10161000E92FF0E0DF01AA0FBB1FEA0FFB1FE95320
:10162000FD4F8183608342839F5FF0CF0C94DA0A81
:101630000895CF93DF9300D01F92CDB7DEB790917E
:10164000C20290FF0AC09E012F5F3F4F0E944C0ACA
:101650004B8169818A810E94FE0A0F900F900F9042
:10166000DF91CF910895CF93DF93EC01EC81F0E00F
:10167000E953FC4F4491E2ECF2E0628181810E94E7
:10168000190B8C818F5F8C83DF91CF910895CF935D
:10169000DF93EC01E2ECF2E0438162818C810E94F5
:1016A000190B8C818F5F8C83DF91CF9108950F93FD
:1016B0001F93CF93DF9300D01F92CDB7DEB78C017D
:1016C0008091CD0181110AC09E012F5F3F4F4FEFE6
:1016D0006FEF0E944C0A8A818093CD01F8018481CA
:1016E000813051F028F0823061F44091CD010AC080
:1016F0008091CD0140E007C06091CD0140E080E0E5
:1017000003C040E080E060E00E94FE0AF80124810E
:1017100030E0C901019663E070E00E940E2B8483E3
:101720000F900F900F90DF91CF911F910F9108951F
:10173000AF92BF92CF92DF92EF92FF920F931F93DF
:10174000CF93DF9300D01F92CDB7DEB7182FF62EC0
:10175000042FE22E9091C20290FF6EC0E92FE69511
:10176000AE2FB0E0A359BE4F8C918093E6019E7FCF
:10177000923061F49E012F5F3F4F812F0E944C0AEF
:101780004B8169818A810E94FE0A44C0823019F42B
:101790000091C5023FC0863019F41091C3023AC0CF
:1017A0008930D9F38931B1F5E9518E2F8170D82E66
:1017B000E695F0E0E953FB4FA590B490C12CBB2413
:1017C00060910B01C61620F5EC2DF0E0EA9DC001FA
:1017D000EB9D900DFA9D900D112470E00E94FA2A65
:1017E000812FD11002C0860F01C0861B9091090184
:1017F000E90FF11D9F01220F331FE20FF31F9F011D
:1018000029533D4F402F6F2D0E944C0AC394D8CFCF
:101810000E94DA0A1093C302F092C4020093C50238
:10182000EE2051F06091C2027091C3028091C40217
:101830009091C5020E94760A0F900F900F90DF9151
:10184000CF911F910F91FF90EF90DF90CF90BF90BD
:10185000AF900895E2ECF2E09181282F43816281FC
:1018600088E0890F0C94980B81E00C942A0CE2EC30
:10187000F2E09181282F4381628188EF890F0C94D7
:10188000980B81E00C94370CE2ECF2E0628121E1EC
:10189000620F08F46FEF282F438181810C94980B1D
:1018A00081E00C94440CE2ECF2E0628121E1621BE5
:1018B00008F460E0282F438181810C94980B81E02B
:1018C0000C94530CE2ECF2E0438121E1420F08F466
:1018D0004FEF282F628181810C94980B81E00C944A
:1018E000620CE2ECF2E0438121E1421B08F440E0AB
:1018F000282F628181810C94980B81E00C94710CEB
:1019000020E00C94980BFF920F931F93CF93DF93DB
:10191000EC01F12C0FEF10E060910B01F616E8F4EA
:101920002091090130E02F0D311DC901880F991F49
:10193000280F391F29533D4F70E0C8010E940E2B1C
:10194000962F8C814091C5026091C402F99E800D52
:1019500011240E944C0AF394DFCF0E94DA0A9A8184
:101960008C8190FF02C08F5F01C081508C83DF911A
:10197000CF911F910F91FF900895AF92BF92CF9298
:10198000DF92EF92FF920F931F93CF93DF93FC01AF
:10199000828180FF02C00FEF01C001E010E043E050
:1019A000A42E80910B01181708F043C0C12ED12C32
:1019B00080910901E601C80FD11DCE01880F991F42
:1019C000C80FD91FC953DD4F198218821A8234E01B
:1019D000E32EF12CB12C8091CF018B0D84302CF0B3
:1019E0006A2D0E94EC2A892F05C087FF03C09091C1
:1019F0000B01890F082E000C990BC816D90691F41B
:101A00008091C5028E9DA0018F9D500D112455958A
:101A10004795559547959E016091C4028091C302F8
:101A20000E944C0AB00EF1E0EF1AF108A1F61F5F18
:101A3000B8CF0E94DA0A8091CF01013031F48111D0
:101A400002C080910B01815007C090E00196609127
:101A50000B0170E00E940E2B8093CF01DF91CF919C
:101A60001F910F91FF90EF90DF90CF90BF90AF90BC
:101A70000895CF938091090190910A01891770F41C
:101A8000E82FF0E09F01220F331FE20FF31FE9530D
:101A9000FD4F1182108212828F5FF0CFC0E0609103
:101AA0000B01C617B8F5EC2FF0E070E0CF010E94F3
:101AB0000E2B40910901480F8091CE01082E000C99
:101AC000990B50E0E817F907C4F020910601022EA7
:101AD000000C330B2E173F0784F09A01220F331F9F
:101AE000240F351F29533D4F4091C5026091C40218
:101AF0008091C3020E944C0A0BC0FA01EE0FFF1F37
:101B00004E0F5F1FFA01E953FD4F118210821282BE
:101B1000CF5FC5CF0E94DA0A209105018091CE01E6
:101B2000820F8093CE0190910601920F909306014F
:101B300019165CF4082E000C990B40910B0150E033
:101B400041505109841795071CF0219520930501F8
:101B5000CF9108958F929F92AF92BF92CF92DF92D2
:101B6000EF92FF920F931F93CF93DF93EC014C8181
:101B7000042F10E09801D8010E94522B9B01AC0168
:101B80000E94682B6B017C01E0E2F0E0E01BF10BAE
:101B9000A5E5B0E09B01AC010E94682B4B015C0104
:101BA0009F01DF010E944A2B9B01AC010E94732B15
:101BB0009B01AC012C0D3D1D4E1D5F1DC501B401E7
:101BC0000E94222B822F022F2A3228F493E0299F91
:101BD000900111240DC025E530E0281B3109C90111
:101BE000880F991F280F391F37FF02C02F5F3F4F03
:101BF00035952795122F1095F12C85E5E82EE01AE2
:101C000080910B01F816C0F4F1FC02C08E2D01C0CA
:101C1000802F2091090130E02F0D311DA901440FC3
:101C2000551F240F351F29533D4F412F6091C4028A
:101C30000E944C0AF394E4CF0E94DA0A8C8181114D
:101C400002C091E003C0803219F49FEF9093040129
:101C500090910401890F8C83DF91CF911F910F9197
:101C6000FF90EF90DF90CF90BF90AF909F908F90BC
:101C700008950F931F93CF93DF93EC0100E010E0E2
:101C800080910B01282F30E00217130724F5909163
:101C900009019801290F311DA901440F551F240F77
:101CA000351F29533D4F869590E04C810817190741
:101CB0001CF4442331F002C0411103C04091C5021D
:101CC00001C040E06091C4028091C3020E944C0AAE
:101CD0000F5F1F4FD5CF0E94DA0A2C8130E02F5FB3
:101CE0003F4F217033272C83DF91CF911F910F91AC
:101CF00008957F928F929F92AF92BF92CF92DF9280
:101D0000EF92FF920F931F93CF93DF93FC01BB24BD
:101D1000B3948281833008F4B12C948081E0848371
:101D200000E015E05BE4A52E88248394EE24EA9479
:101D3000F12C7BE4C72ED12CECE47E2E80910B019C
:101D4000081708F08DC0C02FD0E01C9FF0011D9F28
:101D5000F00D1124E053FE4F911003C01382128244
:101D600065C08381882389F12FEF280F2383348175
:101D7000332321F0972D981B892F01C0822F90913A
:101D8000C5021C9FF0011D9FF00D1124E053FE4F72
:101D9000899FC0011124B6010E94FA2A6283211191
:101DA00004C0332311F01482A382B1103FC01C9FE2
:101DB000F0011D9FF00D1124E053FE4F8091C302EE
:101DC00080838091C402818331C00E94C72B8230FE
:101DD000914064F5BB2031F00E94C72BB7010E94EF
:101DE0000E2B02C08091C3021C9FF0011D9FF00DBD
:101DF0001124E053FE4F8083BB2059F00E94C72B73
:101E00002091C4022695622F70E00E940E2B820F53
:101E100002C08091C4021C9FF0011D9FF00D11248F
:101E2000E053FE4F81831282A38284828091090154
:101E30009E01280F311DC901880F991F280F391FD6
:101E400029533D4F1C9FF0011D9FF00D1124E053BD
:101E5000FE4F4281618180810E944C0A0F5F6ECFEC
:101E6000DF91CF911F910F91FF90EF90DF90CF9076
:101E7000BF90AF909F908F907F900C94DA0AE2EC25
:101E8000F2E080818E7F8083608171818281938185
:101E90000E94760A1092E7012FEF80E792E021502E
:101EA00080409040E1F700C000000C94DA0A609195
:101EB000C202669570E04BE050E08CE091E00E9439
:101EC000D72B892B19F481E08093E7010E9404212C
:101ED0009093E0018093DF0108959091C20290FFFA
:101EE00035C09170811102C0926006C08B3210F033
:101EF000946502C0880F982B9093C202662351F01C
:101F00006091C2027091C3028091C4029091C50297
:101F10000E94760A6091C202669570E04BE050E044
:101F20008CE091E00E94D72B892B19F01092E701E9
:101F300002C00E94570F81E08093E2014091C502E8
:101F40006091C4028091C3020C94800C0895682FA4
:101F50009091C202969581E0890F8B3208F081E062
:101F60000C946D0F81E00C94A70F682F9091C20222
:101F700096958FEF890F09F48AE20C946D0F81E03A
:101F80000C94B50F61E00C946D0FE2ECF2E08081EF
:101F90008160808386950C94C20F8091C20280FD7F
:101FA0000C943F0F0C94C50F60E00C946D0F809162
:101FB000E50181112EC00E94571F811104C00E94AB
:101FC000F71F0E94920A0E94720A6093C2027093E5
:101FD000C3028093C4029093C5026E7F61F40E9495
:101FE000920A0E94720A6093C2027093C3028093A5
:101FF000C4029093C5020E945F0A1092E70180918B
:10200000C20280FF03C086950E94D40F81E08093B6
:10201000E5010895E2ECF2E080818160808386959D
:102020000C94D40F0F931F93CF93DF938091E7010C
:10203000882309F49CC08091E601E091C202E695F4
:10204000E81BE093E101823049F4F0E0ED53FC4FEE
:10205000E491CE2FD0E003E31BE059C0863049F471
:10206000F0E0E054FC4FE491CE2FD0E007E41BE019
:102070004EC0893051F4E695F0E0E354FC4FE49112
:10208000CE2FD0E003E81CE042C08F3051F4E6953B
:10209000F0E0E654FC4FE491CE2FD0E00DEB1CE0D5
:1020A00036C0853149F4F0E0E954FC4FE491CE2F7D
:1020B000D0E009E31DE02BC08831D9F0833239F438
:1020C000E5EBF3E0C591D49107E51BE020C0843235
:1020D000A9F08532C1F48E2F63E00E94E02AE92F37
:1020E000F0E0EE54FC4FE491CE2FD0E009E71EE083
:1020F0000EC0C8E2D0E00AEA1DE009C0C4EFD1E09A
:1021000009E31EE004C0C0EDD7E00BE41AE08091C3
:10211000E201882389F01092E2010E9404219E01CD
:1021200020953095820F931F9093E0018093DF01FB
:102130001092E4011092E3018091DF019091E0019F
:102140000E9410218C179D0790F0E091DF01F09123
:10215000E001CE0FDF1FD093E001C093DF018FEDD0
:1021600091E0F801DF91CF911F910F910994DF91D8
:10217000CF911F910F910895882311F0FA0101C0AA
:10218000FB010994CF93DF93C82FD62F0E94A10A99
:102190008C1740F00E94A10A8D1720F4DF91CF9197
:1021A0000C94B20F8C2FDF91CF910C94C20F0F9330
:1021B0001F93CF93FB01C281CC2309F463C08C0130
:1021C0000E94A71E8272F801E25CFC45E431F10531
:1021D00008F059C0EA5AFF4F0C94442B0E94CD0FCF
:1021E00006C04FEB5FE062EB7FE00E94BC10C0E0F6
:1021F0004AC042EB5FE06FEB7FE0F7CF41E45CE089
:1022000064E37CE0F2CF44E35CE061E47CE0EDCFAA
:102210004FE55CE060E57CE0E8CF40E55CE06FE541
:102220007CE0E3CF4DE75CE06EE67CE0DECF4EE69F
:102230005CE06DE77CE0D9CF44ED5AE06DEB7AE0ED
:10224000D4CF4DEB5AE064ED7AE0CFCF81E017C0F8
:1022500065E082E010C068E086E00DC06EE089E0D5
:102260000AC064E18FE007C067E185E104C088E14E
:1022700006C062E289E10E94C210B9CF83E20E94E7
:10228000C20FB5CFC1E08C2FCF911F910F91089550
:10229000509A2BB12E7F3BB131604FB7F894FC01BF
:1022A000CB01880F991F680F791F6E0F7F1FE617EC
:1022B000F70789F0819198E03BB9000000C087FFE3
:1022C0002BB9880F000000C000C000C02BB900C0AF
:1022D0009A9591F7ECCF4FBF8FE594E00197F1F716
:1022E00000C000000895AF92BF92CF92DF92EF92AC
:1022F000FF920F931F93CF93DF937C015B01C42F59
:10230000D22FFC0182818823F9F04093EA010E94D8
:1023100004219093E9018093E80180E28C0F8830DA
:1023200008F061C0C77081E001C0880FCA95EAF764
:10233000DF91CF911F910F91FF90EF90DF90CF90A1
:10234000BF90AF900C943D161091EA01141335C064
:102350008091E8019091E9010E9410216C01B70180
:10236000C5010E949A1BC816D90638F5C0E2CD0FE8
:102370001D17B9F080E2810F883040F4177081E0BA
:1023800001C0880F1A95EAF70E944416C83048F435
:1023900081E09D2F977001C0880F9A95EAF70E94FF
:1023A0003D16802F0E942A16C830E8F4D77081E0CD
:1023B00001C0880FDA95EAF70AC080E28C0F8830F6
:1023C00090F4C77081E001C0880FCA95EAF7DF91E9
:1023D000CF911F910F91FF90EF90DF90CF90BF9022
:1023E000AF900C944416DF91CF911F910F91FF9005
:1023F000EF90DF90CF90BF90AF9008950F939C0126
:10240000CB01233F4CE5340731F188F4283DFCE54E
:102410003F07D9F0293D4CE5340779F1273D3C458C
:10242000A9F506E221EE41EE67ED7CE52BC0253FE4
:10243000FCE53F07E1F0A8F0263F3C4539F507E20F
:1024400025EE46EE66EF7CE51DC007E225EE45EE83
:1024500068ED7CE517C006E221EE40EE63EF7CE517
:1024600011C007E225EE44EE64EF7CE50BC006E206
:1024700021EE42EE65EF7CE505C008E221E045EE85
:1024800069ED7CE50E94731180E008C0FC01828147
:10249000882319F01092EA0101C081E00F9108959C
:1024A000CF93DF93EC01FB018281882309F41FC1E4
:1024B000C230FCE5DF0708F41BC1C6319CE5D90733
:1024C00038F09E012A5F3C452930310508F010C1E3
:1024D0000E946A1F9093D5028093D402C031ECE52C
:1024E000DE0709F4C3C008F041C0C8308CE5D80746
:1024F00009F49AC0F0F4C430ECE5DE0709F487C0B3
:1025000068F4C2308CE5D80709F477C0C330DC45E5
:1025100009F0E3C08091D402826076C0C630ECE559
:10252000DE0709F46EC008F07BC08091D402886099
:102530006BC0CC308CE5D80709F485C068F4CA308C
:10254000ECE5DE0709F474C008F079C00E94D518E4
:102550008091D402806858C0CE308CE5D80709F449
:1025600076C008F07FC08091D4028BC0CB3FECE5F1
:10257000DE0709F44FC018F5C3318CE5D80709F41C
:102580007DC078F4C131ECE5DE0709F473C0C231D7
:10259000DC4509F0A2C00E94D5188091D4028F7743
:1025A00033C0C5318CE5D80709F472C008F486C081
:1025B000CA3FDC4509F091C08091D5023EC0CF3FB3
:1025C000FCE5DF0709F45FC058F4CD3F9CE5D9076F
:1025D00009F444C008F43FC08091D50282602DC048
:1025E000C130FDE5DF0709F475C008F45DC0C230F5
:1025F000DD4509F072C080E06EC08091D402816038
:1026000003C08091D40280618093D40266C080911F
:10261000D40211C08091D50282608093D5025DC042
:102620008091D4028062F0CF8091D4028064ECCF9C
:102630008091D40288608460E7CF8160EECF809182
:10264000D4028E7FE1CF8091D4028D7FDDCF809147
:10265000D402877FD9CF8091D50218C08091D5024E
:102660008D7FDBCF8091D4028F7ECECF8091D4023C
:102670008F7DCACF8091D4028F7BC6CF8091D40248
:10268000877F8B7FC1CF8091D5028D7F8E7FC5CF15
:102690008091D40282FB222720F991E0922790FBBF
:1026A00082F990FB83F9B0CF8091D502982F909555
:1026B00091708E7F892B90FB81F9AFCF0E94D51846
:1026C0008091D40287FB222720F991E0922790FB8A
:1026D00087F99ACF81E00E94F91F8091D4029091EE
:1026E000D5020E947B1F0E94D51880E001C081E0C6
:1026F000DF91CF910895CF93DF9386319C4541F5CB
:10270000EB010E94A71E282F8A814091170150914A
:102710001801882379F02A7A91E009F490E09093E7
:10272000EB01911102C069E201C065E3CA010E9498
:1027300096200AC08091EB01811102C069E201C0BC
:1027400065E3CA010E94A1200E94F31E80E001C03F
:1027500081E0DF91CF9108959093F1018093F00192
:102760000895E091F001F091F101309721F001908E
:10277000F081E02D099480E00895E091F001F0915E
:10278000F101309799F020912B01222359F02091EB
:10279000D40227FF07C0DC012C9111962C931197CE
:1027A00025E02C930280F381E02D09940895E091B7
:1027B000F001F091F101309739F022E0DC012C9327
:1027C0000480F581E02D099408952091EE01309167
:1027D000EF018217930771F09093EF018093EE0160
:1027E000E091F001F091F101309721F00680F7813E
:1027F000E02D099408952091EC013091ED018217AC
:10280000930771F09093ED018093EC01E091F0015A
:10281000F091F101309721F00084F185E02D0994C9
:10282000089585B7806885BF85B7806885BF08959E
:10283000089508950C9419140C948D050E94111498
:102840000E9418140C941A1481E008950C94241416
:102850000E94FB200E9444090E9469210E94D70F18
:102860000C941C147F928F929F92AF92BF92CF9242
:10287000DF92EF92FF920F931F93CF93DF93CDB729
:10288000DEB72A970FB6F894DEBF0FBECDBF0E9409
:1028900066090E942614811111C08FEF89838A83F3
:1028A0001B820E9404218160782F9D838C83498143
:1028B0005A816B818D810E94E4144FC033EF832EC7
:1028C00031E0932E00E010E0702E802F0E94360938
:1028D0006C01F401A190B1904F01A826B926A11472
:1028E000B10431F40F5F1F4F0430110569F7D5CFE4
:1028F00080917F0281FD0E943F0990E0EE24E394E5
:10290000F12C97012A213B21232B09F19E837F8201
:10291000CE20DF2091E0CD2809F490E098870E9436
:1029200004218160782F9A8789874E815F8168852D
:102930008A850E94E414000F111FF801ED50FE4F2C
:1029400080819181E826F926F182E08206C09F5FAE
:10295000EE0CFF1C9C30A9F6C5CF0E9412100E94FD
:1029600018231091F2010E94B1131817C9F00E94A8
:10297000B1138093F2012A960FB6F894DEBF0FBE12
:10298000CDBFDF91CF911F910F91FF90EF90DF901E
:10299000CF90BF90AF909F908F907F900C94D00677
:1029A0002A960FB6F894DEBF0FBECDBFDF91CF9150
:1029B0001F910F91FF90EF90DF90CF90BF90AF905D
:1029C0009F908F907F900895CF93DF93CDB7DEB720
:1029D0002B970FB6F894DEBF0FBECDBF4F8358873D
:1029E00069877A878B87DE01119686E0FD01119257
:1029F0008A95E9F785E0FE01379601900D928A9558
:102A0000E1F749815A816B817C818D819E810E9491
:102A10009D1B2B960FB6F894DEBF0FBECDBFDF9186
:102A2000CF910895FC01808191810E94681E0895D4
:102A3000CF93882309F4A4C0C82F8238C1F40E9420
:102A4000B11381FD9DC069E3809117019091180138
:102A50000E9496200E94F31E2FEF81EE94E02150F9
:102A600080409040E1F700C0000069E319C083385E
:102A700001F50E94B11380FD83C063E580911701C9
:102A8000909118010E9496200E94F31E2FEF81EE74
:102A900094E0215080409040E1F700C0000063E5E1
:102AA00080911701909118010E94A120CF910C9460
:102AB000F31E8438C1F40E94B11382FD61C067E443
:102AC00080911701909118010E9496200E94F31E98
:102AD0002FEF81EE94E0215080409040E1F700C05C
:102AE000000067E4DDCF8CEF8C0F813AD0F46C2FBF
:102AF00080911701909118010E941420882349F0B9
:102B00006C2F80911701909118010E94A1200E94C2
:102B1000F31E6C2F80911701909118010E9496204E
:102B2000C5CF80E28C0F883048F4C77081E001C0C7
:102B3000880FCA95EAF70E94AA1EB8CFEBE5EC0F02
:102B4000E33040F4F0E0EA53FE4F808190E0CF9113
:102B50000C94E513E8E5EC0FE73150F4F0E0EE0FEC
:102B6000FF1FE856FE4F80819181CF910C94FB139B
:102B7000C03F30F08C2F0E940D22CF910C94FA228E
:102B8000CF910895882309F464C0823879F40E94B3
:102B9000B11381FF5EC069E3809117019091180124
:102BA0000E9496200E94F31E69E310C08338B1F49E
:102BB0000E94B11380FF4DC063E580911701909191
:102BC00018010E9496200E94F31E63E58091170170
:102BD000909118010E94A1200C94F31E843879F47E
:102BE0000E94B11382FF35C067E480911701909174
:102BF00018010E9496200E94F31E67E4E7CF9CEF25
:102C0000980F913A10F4682FE1CF90E2980F983026
:102C100050F4877091E001C0990F8A95EAF7892FE7
:102C20000E94B01ED9CF9BE5980F933020F480E02E
:102C300090E00C94E51398E5980F973120F480E02C
:102C400090E00C94FB13803F20F00E9475220C94BE
:102C5000FA220895CF93C82F0E941815C93349F45A
:102C60002FEF87EE93E0215080409040E1F700C0C5
:102C700000008C2FCF910C94C215882321F00E9464
:102C8000AA1E0C94F31E0895882321F00E94B01E02
:102C90000C94F31E0895BF92CF92DF92EF92FF92B1
:102CA0000F931F93CF93DF937C01062FC72FFC0157
:102CB000158112951F70D281D1110E94C71E0E94EA
:102CC000A01E882399F0DD2389F08C2F807F80342B
:102CD00021F080E2800F883048F082E00E943E1FA1
:102CE0000E94A01E91E0B82EB92601C0B12CCC2EB6
:102CF000C2948FE0C822D12CF601E659FF4F0C9404
:102D0000442B8C2F807FCF70882311F0C295C07F19
:102D1000DD2399F0CC2309F497C180E2800F88303D
:102D200010F0011104C08C2F0E94AA1E03C08C2F2A
:102D30000E94BA1E0E94F31E87C1802F0E94C215F6
:102D4000CC2309F4A6C180E2800F883010F0011175
:102D500004C08C2F0E94B01E03C08C2F0E94C01E86
:102D60000E94F31E96C18C2F807FCF70803211F0AD
:102D7000C295C07F002319F00130C9F022C0DD23C5
:102D800071F0112341F0113031F40E94DA1E8C2BC6
:102D90000E94E01E7EC10E94DA1E8C2B1DC01123F2
:102DA00019F0113009F475C10E94E91E25C0DD2318
:102DB00021F0163008F06DC10EC0153008F069C161
:102DC0001BC0DD2361F0112331F0F701858180FF05
:102DD0003BC18F7085838C2F0E943D165AC11123F1
:102DE00059F0093309F041C1FFEF27EE83E0F150BC
:102DF00020408040E1F737C18C2F0E94441649C122
:102E00008C2F86958695837090E0009719F0019736
:102E100061F03FC1DD2321F0802F9C2F937002C011
:102E200080E090E00E94E5133FC1DD2321F0802F78
:102E30009C2F937002C080E090E00E94FB1334C18D
:102E4000802FDD2319F00E940D2202C00E947522FE
:102E50000E94FA2229C18C2F837009F049C0D11138
:102E60001FC1402F429546954770440F440F602F75
:102E70006F70862F90E0A0E0B0E0042E04C0880FB1
:102E8000991FAA1FBB1F0A94D2F704FF10C00FE0BE
:102E900010E020E030E004C0000F111F221F331F9C
:102EA0004A95D2F7009510952095309503C000E023
:102EB00010E09801C695C695C370D0E0BC01CD0165
:102EC000602B712B822B932BC230D10559F0C3306C
:102ED000D10559F0219719F00E94E21CE1C00E942F
:102EE000D01CDEC00E94F41CDBC00E94CE1CD8C0E7
:102EF000DD2319F08C2F817001C08695882309F499
:102F0000CFC0402F429546954770440F440F602F25
:102F10006F70862F90E0A0E0B0E0042E04C0880F10
:102F2000991FAA1FBB1F0A94D2F704FF10C00FE01D
:102F300010E020E030E004C0000F111F221F331FFB
:102F40004A95D2F7009510952095309503C000E082
:102F500010E09801C695C695C370D0E0BC01CD01C4
:102F6000602B712B822B932BC230D10559F0C330CB
:102F7000D10559F0219719F00E94A71D91C00E9418
:102F8000951D8EC00E94B91D8BC00E94081D88C06F
:102F9000CF70DD2339F08C2F0E942E1D802F0E94D0
:102FA0003D167EC0802F0E9444168C2F0E944F1D1C
:102FB00077C0023F01F128F4003F41F0013FA1F04A
:102FC0003FC0033FF9F0043F39F13AC0DD2341F03F
:102FD000153008F05EC08C2F8F710E94741D59C08F
:102FE000163008F056C0F7CFDD2339F08C2F8F71E3
:102FF0000E942E1D4EC0DD23C9F38C2F8F710E94BD
:103000004F1D47C0DD2329F08C2F8F710E94191DA1
:1030100040C00E94141D3DC0DD2349F0CF718C2FAC
:103020000E942E1D63E08C2F0E94291F32C081E078
:103030000E943E1F123068F182E00E943E1F29C0AC
:10304000DD2331F0112391F2802F0E94181521C049
:10305000112399F2093349F49FEFE7EEF3E0915021
:10306000E040F040E1F700C00000802F0E94C21550
:1030700010C04C2F4F70602FC7010E942C070E9478
:10308000411C12C04C2F4F70602FC7010E942F07A8
:103090000BC028E0C21AD10884E0C816D10420F47D
:1030A0000E94B1130E94D006BB20D1F00E949C1E4A
:1030B00080FD16C0F70112820E94961E0E942E1DEE
:1030C000C7010E9492180E94961EDF91CF911F9116
:1030D0000F91FF90EF90DF90CF90BF900C944F1D19
:1030E000DF91CF911F910F91FF90EF90DF90CF90E4
:1030F000BF9008950F931F93CF93DF93EC016881E6
:1031000079818A810E94731E8C010E94CB1D0E94CE
:10311000CD1CB801CE010E944B16DF91CF911F91BB
:103120000F910895CF93DF93EC01888199812B81D2
:103130003C81232BE9F09F3F11F48F3FC9F0CE0172
:103140000E94E90681110CC00E94A01E882381F014
:103150008A81882369F082E0DF91CF910C943E1F31
:10316000CE010E947A18CE01DF91CF910C94FB051D
:10317000DF91CF9108950E94C71E0E94D71E0E9422
:10318000F31E0E942B240E94FA2280E090E00E940D
:10319000E51380E090E00C94FB138091170190916F
:1031A00018010E94AC200C94BB180E94B71E0C940E
:1031B000CD18E92FE295EF70F0E03297EE30F1058F
:1031C000B0F4E658FF4F0C94442B803F91F018F474
:1031D000883E68F40EC0843F51F40BC0883E48F02E
:1031E000813F29F406C093FB882780F9089580E089
:1031F000089581E008950E94681E0E94D9180895DC
:10320000CF93DF9300D000D01F92CDB7DEB70F90E1
:103210000F900F900F900F90DF91CF910895CF9363
:10322000DF9300D000D000D0CDB7DEB726960FB622
:10323000F894DEBF0FBECDBFDF91CF9108951F93ED
:10324000CF93DF93C091FC0116E08091FD01C81778
:1032500099F0D0E01C9FF0011D9FF00D1124E25069
:10326000FE4F4081518162817381848195810E94EA
:103270000F192196C770E9CFDF91CF911F91089563
:1032800040912E0250912F026091300270913102D4
:1032900080913202909133020C940F192091FC011D
:1032A0009091FD0156E02917A9F030E0529FF001FE
:1032B000539FF00D1124E250FE4F7181671306C039
:1032C0007081871303C07281471306C02F5F3F4F81
:1032D0002770E9CF80E0089581E00895CF93DF93D0
:1032E0008091330282958F7009F051C08091300235
:1032F000882309F44CC08091FC01C091FD014091EC
:103300002E0250912F026091310270913202D6E06C
:103310008C17E9F190E061157105B1F15F3F11F48F
:103320004F3F91F1D89FF001D99FF00D1124DF019B
:10333000A250BE4F11962C911197521325C02C917B
:10334000421322C012962C91129721111DC0139680
:103350002D913C911497261B370B2F3A3105A0F481
:10336000809133028F70806180933302ED5FFD4F57
:1033700080818F70806180838EE292E00E9492183B
:10338000DF91CF910C941F1901968770C1CFDF9107
:10339000CF9108958F929F92AF92BF92DF92EF925A
:1033A000FF920F931F93CF93DF93CDB7DEB7629752
:1033B0000FB6F894DEBF0FBECDBF8C0185E0F801DB
:1033C000DE011D9601900D928A95E1F7D801EC90EF
:1033D00011965C9111971296DC90129713968D902E
:1033E0009C90149790912E0220912F0260913102AF
:1033F000709132026115710509F46CC12F3F19F407
:103400009F3F09F467C18EE2A82E82E0B82EF090AB
:103410003002F401E61BF70BFF2009F404C1809190
:103420003302382F307FEF3AF10508F0C0C0311178
:1034300079C0251313C09E1111C0D1100FC08F7019
:103440008061809333020E944019C5010E94921846
:1034500080913302D80115968C9321C0892809F4F4
:1034600057C05F3F21F4BFEFEB1609F451C0D110F4
:1034700018C040E0652F8E2D5A8B0E944E195A8934
:10348000882379F08EE292E00E949218EEE2F2E058
:1034900086E0DF011D928A95E9F70E944019F12C20
:1034A00036C15F3F19F4BFEFEB1691F1D11030C078
:1034B00040E0652F8E2D5A8B0E944E19B82E5A89E6
:1034C000811126C0ED865E878D859E850E94681ECF
:1034D000292F22952F7030E02230310524F024303E
:1034E000310534F00FC09F7049F0811107C00EC044
:1034F0009F7021F0F8019581907F41F090E2980F44
:10350000983020F0C8010E949218BF2CFB2CFFC0FD
:10351000FD2CDD2009F4FBC0809133028160809393
:103520003302BDCF251306C09E1104C0D11002C0C6
:10353000D8019AC0ED865E878D859E850E94FB1816
:10354000882379F1DD2069F120913302822F829561
:103550008F7090E0029774F080912E0290912F026C
:1035600098878F8319869B868A862C87CE0107963B
:103570000E94921886E0F801AEE2B2E001900D924E
:103580008A95E1F70E946E190E9440190DC0251717
:1035900011F1ED865E878D859E850E94FB18811155
:1035A0002AC0C8010E949218FF24F394B0C03111C0
:1035B000EECF782D998A888A4E2D6D2D89890E94AB
:1035C00000198EE292E00E94921886E0F5011192B5
:1035D0008A95E9F762CF9E11DCCFD110DACFD801FE
:1035E00015968C93C8010E94921886E0F5011192FD
:1035F0008A95E9F78CC0DD20A1F220913302822F59
:1036000082958F7090E002970CF4B4CF80912E02D7
:1036100090912F029A8389831B829D828C822E83B4
:10362000CE010196A5CFEF3AF10508F045C0FD2C7B
:10363000DD2009F4B6CF25132EC09E112CC0209199
:10364000330220FD1FC0822F82958F70D9F0D801E0
:1036500015962C9315978F3049F08F5F982F929580
:10366000907F822F8F70892B15968C93C8010E94B2
:10367000921886E0F801AEE2B2E001900D928A95D0
:10368000E1F743C086E0F801AEE2B2E001900D92AE
:103690008A95E1F73CC0ED865E878D859E850E9408
:1036A000FB18811167CF80913302816080933302D0
:1036B000C8010E9492182BC0782D998A888A4E2DB5
:1036C0006D2D89890E94001986E0F50111928A9575
:1036D000E9F71BC0DD2009F464CFED865E878D8598
:1036E0009E850E94FB18F82E882309F45ACF86E0A5
:1036F000F801AEE2B2E001900D928A95E1F78EE218
:1037000092E00E9412150E946E190E9440198F2D9E
:1037100062960FB6F894DEBF0FBECDBFDF91CF919A
:103720001F910F91FF90EF90DF90BF90AF909F900F
:103730008F9008958FEA90E008951F93CF93DF93C1
:10374000CDB7DEB72C970FB6F894DEBF0FBECDBF56
:103750004F83588769877A878B879C87CE01079626
:103760000E94CA19882369F08F8198852A853B8534
:10377000232BF1F19F3F09F063C08F3F09F060C038
:1037800037C086E0FE013796DE01119601900D925A
:103790008A95E1F76F817885EA85FB85309741F15D
:1037A0007F3F11F46F3F21F12091FD0130E0C9010D
:1037B0000196877099274091FC0150E08417950786
:1037C00009F447C069837A83FD83EC8396E0929F76
:1037D000D001939FB00D1124A250BE4FFE0131962F
:1037E00001900D929A95E1F78093FD010E941F19B7
:1037F00016E08091FC019091FD018917C1F1189F9D
:10380000C001112482509E4F0E94CA19882379F169
:10381000E091FC011E9FF0011124E250FE4F408117
:10382000518162817381848195810E940F198091F9
:10383000FC0190E00196877099278093FC01D9CF15
:103840004F81588569857A858B859C850E940F19E3
:10385000CFCF0E94D5181092FD011092FC01EEE22C
:10386000F2E086E0DF011D928A95E9F7C1CF2C9640
:103870000FB6F894DEBF0FBECDBFDF91CF911F9181
:103880000895EF92FF920F931F93CF93DF938C01D4
:10389000892B09F46CC0F12CEE24E394E801219605
:1038A000F8018491843740F4843008F051C08130AD
:1038B00081F0823019F15BC0853709F444C0A8F16A
:1038C0009CE7980F903708F052C08F770E94C2157E
:1038D00041C00E5F1F4FFE01C49180E28C0F883003
:1038E00048F4C7708E2D01C0880FCA95EAF70E9470
:1038F000CA1E14C08C2F0E9418152DC00E5F1F4FBA
:10390000FE01C49180E28C0F883058F4C7708E2D70
:1039100001C0880FCA95EAF70E94D01E0E94F31ECC
:103920001AC08C2F0E94C21516C00E5F1F4FFE01D9
:10393000C491CC2381F08FE99FE00197F1F700C09B
:103940000000C150F6CF0E5F1F4FFE01F49003C080
:103950000E9418158E018F2D882309F49FCFEFE95F
:10396000FFE03197F1F700C000008150F5CFDF9103
:10397000CF911F910F91FF90EF90089508950C94AF
:10398000BE1C0E94BF1C6093560270935702809326
:103990005802909359020C94BB1808950C94C11CC2
:1039A0000F931F93009156021091570220915802D5
:1039B00030915902602B712B822B932B1F910F9109
:1039C0000C94C11C0F931F93009156021091570243
:1039D000209158023091590260237123822393234E
:1039E0001F910F910C94C11C0F931F9300915602CD
:1039F0001091570220915802309159026027712787
:103A0000822793271F910F910C94C11C0C94A7053A
:103A10000E94061D609352027093530280935402D9
:103A2000909355020C94BB1860E070E0CB010C94AD
:103A3000081D0F931F9341E050E060E070E08A01A1
:103A40009B0104C0000F111F221F331F8A95D2F75C
:103A5000C901B8011F910F910C94081D0F931F937A
:103A600041E050E060E070E004C0440F551F661F65
:103A7000771F8A95D2F78091520290915302A091BC
:103A80005402B09155028A019B01082B192B2A2B55
:103A90003B2BC901B8011F910F910C94081D0F9386
:103AA0001F9341E050E060E070E004C0440F551FF8
:103AB000661F771F8A95D2F740955095609570954F
:103AC0008091520290915302A0915402B0915502FC
:103AD0008A019B01082319232A233B23C901B8012A
:103AE0001F910F910C94081D0F931F9341E050E01C
:103AF00060E070E004C0440F551F661F771F8A9571
:103B0000D2F78091520290915302A0915402B09149
:103B100055028A019B01082719272A273B27C9013B
:103B2000B8011F910F910C94081D0F931F930091E2
:103B30005202109153022091540230915502602B91
:103B4000712B822B932B1F910F910C94081D0F93B7
:103B50001F93009152021091530220915402309110
:103B6000550260237123822393231F910F910C949C
:103B7000081D0F931F930091520210915302209140
:103B800054023091550260277127822793271F9195
:103B90000F910C94081D08952CE0929F800D112424
:103BA000A82FA695A695A695877051E001C0550F40
:103BB0008A95EAF785E0A89FD001112420E030E043
:103BC00070E0F901EA0FFB1FEC5CFD4F4081CB0177
:103BD000022E02C0969587950A94E2F78170992784
:103BE000819584278523842780832F5F3F4F25304D
:103BF000310539F708952CE0929F800D1124682F2C
:103C0000669566956695982F977085E0689FB001D8
:103C1000112440E050E080E0FA01E60FF71FEC5C71
:103C2000FD4F208130E0092E02C0369527950A9479
:103C3000E2F721703327042E01C0220F0A94EAF71D
:103C4000822B4F5F5F4F4530510531F70895BF928A
:103C5000CF92DF92EF92FF920F931F93CF93DF9358
:103C60008C01C0905602D0905702E0905802F0901C
:103C700059028091520290915302A0915402B09146
:103C80005502C82AD92AEA2AFB2ACFE1D0E0D70177
:103C9000C6010C2E04C0B695A795979587950A94F2
:103CA000D2F780FF07C0BC2EB8018C2F0E944A07B4
:103CB000019719F4219758F7B12C8B2DDF91CF91F3
:103CC0001F910F91FF90EF90DF90CF90BF900895DC
:103CD000CF93DF93EC010E94271EBE010E944A078A
:103CE000DF91CF9108951F93CF93DF93EB019091D4
:103CF000FB01992321F0CB010E94681E13C0882389
:103D000049F0CB010E94271E182F682FCE010E9478
:103D1000CC1D04C0CB010E94FB1D182FBE01812FBA
:103D20000E944A07DF91CF911F91089580915A0216
:103D3000859585958595089580915A028770089597
:103D400090915A02977081E009F480E00895809183
:103D50007E02089590917E02892B80937E020895C1
:103D6000809590917E02892380937E02089510921F
:103D70007E02089590917D02892B80937D020895A3
:103D8000809590917D02892380937D020895109201
:103D90007D02089590917C02892B80937C02089586
:103DA000809590917C02892380937C0208951092E3
:103DB0007C02089580915B02089508950C94DD1EA5
:103DC00090915B02981721F080935B020C94DE1EA9
:103DD000089580915B02882329F010925B0280E0B5
:103DE0000C94DE1E0895E0911701F0911801809166
:103DF0007E028083E0911701F091180190818091FB
:103E00007D02892B8083E0911701F0911801908148
:103E100080917C02892B808380915B02882381F0D2
:103E2000E0911701F09118019081892B8083809196
:103E30001701909118010E94FE1F81110E94E91E36
:103E400080911701909118010C94BD1308950C9462
:103E5000261F98E0899F90011124262B20935A0257
:103E60000E942E1D80915A028595859585950C940A
:103E7000271F10925A0280E00C94271F20915A02AB
:103E80008095822380935A02982F977079F430E0BE
:103E9000482F082E000C550B2417350739F085954F
:103EA000859585950E944F1D0C94391F089580E0DB
:103EB00090E00E94F22B21E08C3E9E4F09F020E022
:103EC000822F089582E090E00C94E42B83E090E050
:103ED0000C94E42BCF9384E090E00E94E42BC82F55
:103EE00081E290E00E94E42B2C2F30E0A901582BB6
:103EF000CA01CF910895CF93C92F682F84E090E035
:103F00000E94F82B6C2F81E290E0CF910C94F82B5B
:103F1000AB01BC018FE090E00C940A2CAB01BC011A
:103F200083E190E00C940A2C60E070E0CB010C94EB
:103F30008E1F60E070E0CB010E94881F0C94941FDC
:103F40006CEE7EEF80E090E00E94162C60E082E054
:103F500090E00E94F82B60E083E090E00E94F82B54
:103F60001092560210925702109258021092590263
:103F700060E084E090E00E94F82B60E081E290E055
:103F80000E94F82B60E085E090E00E94F82B60E052
:103F900086E090E00E94F82B6FEF87E090E00E94AF
:103FA000F82B40E050E0BA0188E090E00E940A2C33
:103FB00060E08DE090E00E94F82B40E050E0BA0114
:103FC00088E190E00E940A2C60E087E190E00E9486
:103FD000F82B40E050E0BA018CE190E00E940A2CFE
:103FE00060E080E290E00E94F82B0C94991F0C9402
:103FF000A01F682F8EE090E00C94F82BFC01329605
:1040000080912B01882331F08091D40287FF02C078
:104010009EE101C096E080E0915028F0219122239A
:10402000D9F38F5FF9CF0895662369F120912B01B1
:10403000222321F02091D40227FD04C0FC013296F6
:1040400008961DC0262F2695269526952E31D8F444
:10405000FC01E20FF11D2281822F90E0677021E0C8
:1040600030E002C0220F331F6A95E2F7282339237C
:1040700081E0232B59F407C0E817F90721F02191BB
:104080002613FACF02C080E0089581E008959C01D4
:10409000FC0132969FEF80E04191461789F09F3FE7
:1040A00019F4411101C0982F8F5F8630A9F79F3F07
:1040B00039F0F901E90FF11D97FDFA956283089532
:1040C0000895FC01329608962081261301C01082C3
:1040D0003196E817F907C1F70895262F26952695FA
:1040E00026952E3168F4FC01E20FF11D677021E086
:1040F00030E001C0220F6A95EAF78281282B2283E3
:104100000895262F2695269526952E3170F4FC01CC
:10411000E20FF11D677021E030E001C0220F6A95C7
:10412000EAF72095828128232283089520912B018C
:10413000222329F02091D40227FD0C946D200C94A9
:10414000472020912B01222329F02091D40227FD22
:104150000C9481200C94612020912B01FC0132965B
:10416000222331F08091D40287FF02C08EE101C08A
:1041700086E0DF011D928A95E9F7089508950C9471
:10418000BE200E94D5180E94B1130E94D006109242
:1041900081028091820281110E940A100E94570FB1
:1041A0000C94BF201F920F920FB60F9211248F9381
:1041B0009F93AF93BF9380918002811113C0809130
:1041C000D0029091D102A091D202B091D302419637
:1041D000A11DB11D8093D0029093D102A093D20271
:1041E000B093D302BF91AF919F918F910F900FBE6B
:1041F0000F901F90189582E084BD93E095BD9AEFD3
:1042000097BD80936E0008952FB7F8948091D002E7
:104210009091D102A091D202B091D3022FBF089504
:104220009C014FB7F8948091D0029091D102A09157
:10423000D202B091D3024FBF821B930B08957894A2
:104240001F920F920FB60F9211248F939F93AF93EB
:10425000BF938091D0029091D102A091D202B091EF
:10426000D3020196A11DB11D8093D0029093D1027B
:10427000A093D202B093D302BF91AF919F918F913F
:104280000F900FBE0F901F90189581E08093E00073
:1042900080E28093D8001092C9008FE19EE40197DC
:1042A000F1F700C0000087E090EBDC018093E302AF
:1042B0009093E402A093E502B093E6029CE088E1CB
:1042C0000FB6F894A895809360000FBE909360009D
:1042D000FFCF0E94571F811102C00E94F71F0E944A
:1042E000621F80937F020E946A1F9093D502809381
:1042F000D4020E94661F682F70E080E090E00E9468
:10430000CE1C6091520270915302809154029091A0
:1043100055020C94061D8091890280FF0BC06091AC
:104320001E0185E0689FB00111247595679575950C
:1043300067952BC081FF09C060911E0185E0689FD1
:10434000B00111247595679520C082FF07C0609168
:104350001E0185E0689FB001112417C0909188026A
:104360009923D1F060911D01961788F720911E01C5
:1043700085E0289F90011124929FA001939F500DEA
:10438000112470E0CA010E940E2B6038710540F4C0
:104390006115710539F002C065E070E0862F08955F
:1043A0008FE7089581E008958091890280FF08C019
:1043B00060911A0170E0759567957595679521C0B4
:1043C00081FF06C060911A0170E07595679519C06C
:1043D00082FF04C060911A0170E010C090918702C2
:1043E0009923C1F0609119019617A0F780911A01E5
:1043F000899FC001112470E00E940E2B6038710566
:1044000028F46115710521F0862F08958FE708952E
:1044100081E0089561E070E0F4CF803F21F40E94D4
:104420008B21819504C0813F29F40E948B218093C8
:104430008D020895823F21F40E948B21819504C052
:10444000833F29F40E948B2180938C020895893F39
:1044500019F40E94D42105C08A3F31F40E94D4216E
:10446000819580938E0208958B3F21F40E94D42180
:10447000819504C08C3F29F40E94D42180938F023F
:104480000895843F21F480918B02816017C0853F9D
:1044900021F480918B02826011C0863F21F48091CB
:1044A0008B0284600BC0873F21F480918B0288606F
:1044B00005C0883F31F480918B02806180938B022C
:1044C00008958D3F21F48091890281600BC08E3F59
:1044D00021F480918902826005C08F3F29F4809188
:1044E00089028460809389020895803F39F4809125
:1044F0008D0287FF6AC010928D0267C0813F29F448
:1045000080918D021816BCF360C090918C02823F9E
:1045100029F497FF5AC010928C0257C0833F19F4B8
:104520001916CCF352C090918E02893F31F41916BE
:104530000CF04BC010928E0248C08A3F19F497FFCE
:1045400044C0F8CF8B3F39F480918F0287FF3DC084
:1045500010928F023AC08C3F29F480918F02181676
:10456000BCF333C0843F21F480918B028E7F17C04F
:10457000853F21F480918B028D7F11C0863F21F40D
:1045800080918B028B7F0BC0873F21F480918B023F
:10459000877F05C0883F31F480918B028F7E8093A6
:1045A0008B0213C08D3F21F4809189028E7F0BC056
:1045B0008E3F21F4809189028D7F05C08F3F29F4C1
:1045C000809189028B7F8093890280918C02811176
:1045D00006C080918D02811102C0109288028091E4
:1045E0008E02811106C080918F02811102C010924B
:1045F000870208950E94042120918C02211104C099
:1046000020918D02222321F09093860280938502CF
:1046100020918E02211104C020918F02222321F0CB
:1046200090938402809383028AE892E00C94D713DB
:10463000EF92FF920F931F93CF93DF9300D000D0A0
:1046400000D0CDB7DEB786E0EAE8F2E0DE011196F1
:1046500001900D928A95E1F7E0908C02F0908D0226
:1046600000918E0210918F0210928C0210928D0296
:1046700010928E0210928F02E11003C0FF2009F405
:104680005DC080918502909186020E941021AC014C
:1046900090918802992339F020911F0130E024176E
:1046A000350758F04BC0209120018AE0289F9001E7
:1046B00011242417350718F041C09F3F19F09F5F60
:1046C00090938802EE2061F00E948B211E1414F05A
:1046D0009FEF01C091E0989F902D112490938C0240
:1046E000FF2061F00E948B211F1414F09FEF01C086
:1046F00091E0989F902D112490938D0230918C021F
:104700003323E1F020918D022223C1F045EB3403E5
:10471000C0011124892F990F990B009709F481E0AA
:1047200080938C0235EB2303C0011124892F990F4C
:10473000990B009709F481E080938D02011103C069
:10474000112309F45DC080918302909184020E943C
:104750001021AC0190918702992339F020911B011F
:1047600030E02417350758F04BC020911C018AE037
:10477000289F900111242417350718F041C09F3F4E
:1047800019F09F5F90938702002361F00E94D4216B
:10479000101614F09FEF01C091E0989F902D112406
:1047A00090938E02112361F00E94D421111614F00F
:1047B0009FEF01C091E0989F902D112490938F025C
:1047C00030918E023323E1F020918F022223C1F039
:1047D00045EB3403C0011124892F990F990B0097E1
:1047E00009F481E080938E0235EB2303C00111248C
:1047F000892F990F990B009709F481E080938F021C
:1048000080918C0281110BC080918D02811107C0B3
:1048100080918E02811103C080918F0281110E94CC
:10482000FA22EB82FC820D831E8386E0FE01319624
:10483000AAE8B2E001900D928A95E1F726960FB6AC
:10484000F894DEBF0FBECDBFDF91CF911F910F91C6
:10485000FF90EF900895EAE8F2E086E0DF011D9214
:104860008A95E9F7109288021092870210928902C5
:1048700008958091B0020895CF93DF9300D01F92E6
:10488000CDB7DEB79091DA02943019F589837B8336
:104890006A8382E08093E9008FEF9091E800815075
:1048A00095FD06C095ED9A95F1F700008111F5CFC1
:1048B0008091E80085FF0DC040E050E063E070E0CB
:1048C000CE0101960E9444268091E8008E77809365
:1048D000E8000F900F900F90DF91CF910895BC01E9
:1048E00084E00C943C24BC0183E00C943C2422E042
:1048F0002093E9002FEF3091E800215035FD06C0EC
:1049000035ED3A95F1F700002111F5CF2091E8003F
:1049100025FF0BC040E050E066E070E00E944426B6
:104920008091E8008E778093E8000895CF93DF931D
:1049300020912B01222339F02091D40227FF03C0BC
:1049400060E222E002C068E021E02093E9002FEF5E
:104950003091E800215035FD06C035ED3A95F1F76C
:1049600000002111F5CF2091E80025FF1DC0EC01CA
:1049700080912B01811105C040E050E068E070E0BB
:1049800003C070E040E050E0CE010E9444268091D8
:10499000E8008E778093E80080E2FE01A0E9B2E0B3
:1049A00001900D928A95E1F7DF91CF910895809162
:1049B000D902811109C00E94D9270E94362880910E
:1049C000E20084608093E20008951092D902089575
:1049D000089508950C94C12042E061EC81E00E94AA
:1049E000532742E261EC82E00C9453278091DC0271
:1049F000833009F460C030F4813071F0823009F402
:104A000099C008958A3009F485C08B3009F46BC0D1
:104A1000893009F0A7C020C08091DB02813A09F0FB
:104A2000A1C08091E800877F8093E8008091DF0239
:104A30009091E002892B21F460E280E992E003C0CA
:104A400060E080E090E070E00E948F268091E800B6
:104A50008B778093E80008958091DB02813209F022
:104A600081C08091DF029091E002029708F07AC045
:104A70008091E800877F8093E8008091E80082FDC4
:104A800005C08091DA028111F8CF6CC02091F3004B
:104A90008091F20090E0922B029729F48091F1002E
:104AA0008B7F813021F48091F1008093B00280915E
:104AB000E8008B7753C08091DB02813A09F052C045
:104AC0008091DF029091E002892B09F04BC0809128
:104AD000E800877F8093E8008091E80080FFFCCFAA
:104AE00080912B0136C08091DB028132D9F5809113
:104AF000DF029091E002892BA9F58091E800877F81
:104B00008093E8000E9488278091DD0280932B012A
:104B10000C94D5188091DB02813221F58091E80058
:104B2000877F8093E8000E9488278091DE0280932F
:104B3000B10208958091DB02813AA1F48091E800EE
:104B4000877F8093E8008091E80080FFFCCF809110
:104B5000B1028093F1008091E8008E778093E800A5
:104B60000C948827089584B7877F84BF0FB6F89484
:104B7000A895809160008861809360001092600029
:104B80000FBE90E080E80FB6F89480936100909398
:104B900061000FBE0E941E140E94D9270E94362871
:104BA0008091E20084608093E20078940E94C52A9C
:104BB0000E94281481E291E00E94AC130E943214FA
:104BC000FDCF0C94E325292F332723303105C9F07D
:104BD00064F42130310581F02230310509F04CC0F8
:104BE0008BE390E02CE036E04BC02132310521F11F
:104BF0002232310589F140C082E190E027E436E0BD
:104C00003FC099278130910571F02CF4892BA1F5D3
:104C1000E8E0F6E00DC08230910541F0039761F5C0
:104C2000ECECF5E005C0E4EEF5E002C0E2EDF5E005
:104C3000849190E09F0124C06115710541F06130BD
:104C40007105D1F489E090E027E336E019C089E0EE
:104C500090E02EE136E014C06115710541F061303D
:104C6000710551F48CEB90E029E536E009C080E451
:104C700090E025E137E004C080E090E020E030E003
:104C8000FA01318320830895CF92DF92EF92FF9251
:104C90000F931F93CF93DF93EC018B016A010E9466
:104CA000A727811133C0C114D10439F0F6018081E6
:104CB0009181081B190BC80FD91FE12CF12C01158C
:104CC000110519F18091E80085FD16C08091E8007A
:104CD0008E778093E800C114D10449F0F6018081F9
:104CE0009181E80EF91EF182E08285E00FC00E94FA
:104CF000A727882321F30AC089918093F1000150EE
:104D00001109FFEFEF1AFF0ADACF80E0DF91CF91B0
:104D10001F910F91FF90EF90DF90CF900895209119
:104D2000E1023091E2022617370748F0611571055C
:104D300039F42091E8002E772093E80001C0B901F2
:104D400040E061157105A9F12091DA02222309F4EE
:104D500043C0253009F442C02091E80023FD40C043
:104D60002091E80022FD32C02091E80020FFE9CF29
:104D70004091F3002091F20030E0342BFC01CF0190
:104D80006115710559F02830310540F48191809307
:104D9000F100615071092F5F3F4FF1CF41E02830A2
:104DA000310509F040E02091E8002E772093E800DB
:104DB000C8CF4111C9CF0AC08091DA02882361F0BF
:104DC000853061F08091E80083FD0AC08091E800A1
:104DD00082FFF2CF80E0089582E0089583E0089595
:104DE00081E008952091E1023091E2022617370711
:104DF00048F06115710539F42091E8002E77209371
:104E0000E80001C0B901FC0120E06115710591F1D4
:104E10008091DA02882309F440C0853009F43FC04C
:104E20008091E80083FD3DC08091E80082FD2FC0A5
:104E30008091E80080FFE9CF2091F3008091F2009B
:104E400090E0922B6115710559F08830910540F47E
:104E500024912093F1003196615071090196F2CFAF
:104E600021E0089709F020E08091E8008E77809398
:104E7000E800CBCF2111CCCF0AC08091DA02882381
:104E800061F0853061F08091E80083FD0AC0809177
:104E9000E80082FFF2CF80E0089582E0089583E089
:104EA000089581E00895982F973058F59093E90080
:104EB000981739F07091EC002091ED005091F000BE
:104EC00003C0242F762F50E021FF19C03091EB0052
:104ED0003E7F3093EB003091ED003D7F3093ED004D
:104EE0003091EB0031603093EB007093EC00209335
:104EF000ED005093F0002091EE0027FF07C09F5F68
:104F0000D3CF8F708093E90081E0089580E0089509
:104F10008091DB0287FF11C08091E80082FD05C00F
:104F20008091DA028111F8CF11C08091E8008B776F
:104F30000BC08091DA02882349F08091E80080FF5D
:104F4000F8CF8091E8008E778093E8000895209153
:104F5000E4003091E50095E64091EC00842F8170EB
:104F600040FF22C08091E80080FD1CC08091DA02E1
:104F7000882391F0853091F08091EB0085FD10C081
:104F80004091E4005091E5004217530729F39A013C
:104F9000915011F784E0089582E0089583E0089528
:104FA00081E0089580E008954091E80042FFDECF5F
:104FB00008950E9447280E944F28E0EEF0E080818B
:104FC00081608083E8EDF0E080818F77808319BC79
:104FD000A7EDB0E08C918E7F8C9380818F7E808353
:104FE0001092D90208950F931F93CF93DF930E94DD
:104FF00047280E944F28C8EDD0E088818F778883AA
:1050000088818068888388818F7D888319BC10920D
:10501000DA021092D6021092D8021092D70200EE55
:1050200010E0F80180818B7F808388818160888394
:1050300042E060E080E00E945327E1EEF0E08081F2
:105040008E7F8083E2EEF0E08081816080838081CA
:1050500088608083F80180818E7F80838881806171
:105060008883DF91CF911F910F910895E8EDF0E0D3
:1050700080818F7E8083E7EDF0E080818160808396
:1050800084E082BF81E08093D9020C94F327E8ED9D
:10509000F0E080818E7F80831092E200089510926C
:1050A000DA001092E10008951F920F920FB60F924E
:1050B00011242F933F934F935F936F937F938F931D
:1050C0009F93AF93BF93EF93FF938091E10082FF93
:1050D0000BC08091E20082FF07C08091E1008B7FCE
:1050E0008093E1000E94C42A8091DA0080FF1FC0F3
:1050F0008091D80080FF1BC08091DA008E7F809362
:10510000DA008091D90080FF0DC080E189BD82E185
:1051100089BD09B400FEFDCF81E08093DA020E94D0
:10512000D72405C019BC1092DA020E94E5248091B0
:10513000E10080FF19C08091E20080FF15C08091DE
:10514000E2008E7F8093E2008091E2008061809394
:10515000E2008091D80080628093D80019BC85E07D
:105160008093DA020E94E9248091E10084FF30C03C
:105170008091E20084FF2CC080E189BD82E189BD7D
:1051800009B400FEFDCF8091D8008F7D8093D800B8
:105190008091E1008F7E8093E1008091E2008F7E1C
:1051A0008093E2008091E20081608093E200809130
:1051B000D602882311F084E007C08091E30087FDC8
:1051C00002C081E001C083E08093DA020E94EA24F9
:1051D0008091E10083FF29C08091E20083FF25C018
:1051E0008091E100877F8093E10082E08093DA0282
:1051F0001092D6028091E1008E7F8093E100809131
:10520000E2008E7F8093E2008091E20080618093D3
:10521000E20042E060E080E00E9453278091F000CD
:1052200088608093F0000E94E824FF91EF91BF9185
:10523000AF919F918F917F916F915F914F913F912E
:105240002F910F900FBE0F901F9018951F920F92E5
:105250000FB60F9211242F933F934F935F936F9349
:105260007F938F939F93AF93BF93CF93DF93EF93EE
:10527000FF93C091E900CF708091EC00D82FD170DE
:1052800080FDD0E81092E9008091F000877F809344
:10529000F00078940E946A291092E9008091F00051
:1052A00088608093F000CD2BCF70C093E900FF9110
:1052B000EF91DF91CF91BF91AF919F918F917F91AE
:1052C0006F915F914F913F912F910F900FBE0F9073
:1052D0001F9018951F93CF93DF93CDB7DEB7AA9792
:1052E0000FB6F894DEBF0FBECDBFEBEDF2E088E065
:1052F0008E0F9091F10091938E13FBCF0E94F624B4
:105300008091E80083FF28C18091DB029091DC024C
:10531000492F50E04A30510508F01EC1FA01E85704
:10532000FF4F0C94442B803821F0823809F014C1CF
:1053300008C08091D7029091D802992389F08260A9
:105340000FC08091DF028F70873008F005C1809315
:10535000E9008091EB0085FB882780F91092E90035
:105360009091E800977F9093E8008093F10010926D
:10537000F100D0C0282F2D7F09F0EEC0882319F04E
:10538000823061F0E9C08091DD02813009F0E4C033
:10539000933009F080E08093D8022EC08091DD0226
:1053A00081112AC08091DF028F702FEF280F2630E5
:1053B00008F0D2C08093E9002091EB0020FF1CC0D0
:1053C000933021F48091EB00806214C09091EB0047
:1053D00090619093EB0021E030E0A90102C0440FFE
:1053E000551F8A95E2F74093EA001092EA008091F7
:1053F000EB0088608093EB001092E9008091E80058
:10540000877F8093E8000E948827A6C08111A4C0EE
:105410001091DD021F778091E3008078812B8093CB
:10542000E3008091E800877F8093E8000E9488274E
:105430008091E80080FFFCCF8091E300806880933A
:10544000E300111102C082E001C083E08093DA0220
:1054500083C08058823008F07FC08091DD02909137
:10546000DE028C3D53E0950779F583E08A838AE27A
:1054700089834FB7F894DE01139620E03EE051E2B5
:10548000E32FF0E050935700E49120FF03C0E29532
:10549000EF703F5FEF708E2F90E0EA3010F0C7960C
:1054A00001C0C0968D939D932F5F243149F74FBF64
:1054B0008091E800877F8093E8006AE270E0CE0187
:1054C00001960E948F2615C06091DF027091E00264
:1054D000AE014F5F5F4F0E94E125BC01892BE1F1D6
:1054E0009091E800977F9093E80089819A810E94CB
:1054F000F2268091E8008B778093E8002DC08038F9
:1055000059F58091E800877F8093E8008091D6026A
:105510008093F1008091E8008E7773CF81111CC0D9
:105520009091DD029230C0F48091E800877F8093F3
:10553000E8009093D6020E9488278091D6028111BC
:1055400006C08091E30087FD02C081E001C084E0D5
:105550008093DA020E94EC248091E80083FF0AC065
:105560008091E800877F8093E8008091EB00806263
:105570008093EB00AA960FB6F894DEBF0FBECDBFA6
:10558000DF91CF911F9108950895CF938091DA0212
:105590008823A1F0C091E900CF709091EC00892F91
:1055A000817090FD80E8C82B1092E9008091E8009E
:1055B00083FD0E946A29CF70C093E900CF910895BE
:1055C000991B79E004C0991F961708F0961B881F55
:1055D0007A95C9F78095089587FB082E062687FDE2
:1055E000819567FD61950E94E02A0EF4919507FC74
:1055F00081950895AA1BBB1B51E107C0AA1FBB1FC1
:10560000A617B70710F0A61BB70B881F991F5A954E
:10561000A9F780959095BC01CD01089597FB072EC1
:1056200016F4009407D077FD09D00E94FA2A07FCEF
:1056300005D03EF4909581959F4F089570956195A2
:105640007F4F0895A1E21A2EAA1BBB1BFD010DC0BE
:10565000AA1FBB1FEE1FFF1FA217B307E407F50722
:1056600020F0A21BB30BE40BF50B661F771F881FFE
:10567000991F1A9469F760957095809590959B0194
:10568000AC01BD01CF010895EE0FFF1F0590F4910D
:10569000E02D09940E94522B332312F48A1B9B0B9A
:1056A0000C94632BA29FB001B39FC001A39F700D08
:1056B000811D1124911DB29F700D811D1124911D1A
:1056C00008950E94522BB7FF0895821B930B0895F3
:1056D0000E94522BA59F900DB49F900DA49F800D0A
:1056E000911D11240895B7FF0C94682B0E94682B1C
:1056F000821B930B08958F929F92AF92BF92CF928D
:10570000DF92EF92FF92CF93DF93EC016881798172
:105710008A819B81611571058105910521F464E2FF
:1057200079ED8BE597E02DE133EF41E050E00E9409
:105730002C2C49015A019B01AC01A7EAB1E40E945B
:10574000682B6B017C01ACEEB4EFA50194010E94C3
:10575000762BDC01CB018C0D9D1DAE1DBF1DB7FF4F
:1057600003C00197A109B04888839983AA83BB83AA
:105770009F77DF91CF91FF90EF90DF90CF90BF9018
:10578000AF909F908F9008950E947B2B089580E0AA
:1057900091E00E947B2B0895A0E0B0E0809300018F
:1057A00090930101A0930201B09303010895FC01BD
:1057B0004150504030F001900616D1F73197CF019B
:1057C0000895882799270895F999FECF92BD81BD44
:1057D000F89A992780B50895A6E1B0E044E050E03A
:1057E0000C941E2CA8E1B0E042E050E00C941E2C7A
:1057F000262FF999FECF92BD81BDF89A019700B48A
:10580000021639F01FBA20BD0FB6F894FA9AF99A29
:105810000FBE08950396272F0E94F92B0E94F82BA4
:10582000252F0E94F92B242F0C94F92B0196272F5A
:105830000E94F92B0C94F82BDC01CB01FC01F999A7
:10584000FECF06C0F2BDE1BDF89A319600B40D92CC
:1058500041505040B8F70895052E97FB1EF4009470
:105860000E94432C57FD07D00E94222B07FC03D037
:105870004EF40C94432C50954095309521953F4F14
:105880004F4F5F4F089590958095709561957F4F2C
:0A5890008F4F9F4F0895F894FFCF4B
:10589A0001000000010102000300030301191A1BA1
:1058AA001C1D1E1F2021225C022808641E140A32B5
:1058BA001E39249624772473246F24019293959693
:1058CA003436F6F5F4F1F0339735F794E200E9004F
:1058DA00EA00B500B600B700CD008301CC008A010A
:1058EA0092019401210223022402250226022702A0
:1058FA002A02B300B4006F007000818283000102A3
:10590A000202020606060909090909090F0F0F0F03
:10591A000F0F15151518191919191919191919190E
:10592A002324252525252525E200E900EA00B500DE
:10593A00B600B700CD008301CC008A019201940120
:10594A002102230224022502260227022A02B30088
:0A595A00B4006F007000818283002A
:00000001FF
